{
  "_format": "hh-sol-artifact-1",
  "contractName": "EimerFood",
  "sourceName": "contracts/EimerFood.sol",
  "abi": [
    {
      "inputs": [],
      "stateMutability": "nonpayable",
      "type": "constructor"
    },
    {
      "inputs": [
        {
          "internalType": "string",
          "name": "foodUrl",
          "type": "string"
        },
        {
          "internalType": "string",
          "name": "foodName",
          "type": "string"
        },
        {
          "internalType": "string",
          "name": "originCountry",
          "type": "string"
        }
      ],
      "name": "addEimerFood",
      "outputs": [],
      "stateMutability": "nonpayable",
      "type": "function"
    },
    {
      "inputs": [],
      "name": "getAllEimerFoods",
      "outputs": [
        {
          "components": [
            {
              "internalType": "address",
              "name": "owner",
              "type": "address"
            },
            {
              "internalType": "string",
              "name": "foodUrl",
              "type": "string"
            },
            {
              "internalType": "string",
              "name": "foodName",
              "type": "string"
            },
            {
              "internalType": "string",
              "name": "originCountry",
              "type": "string"
            }
          ],
          "internalType": "struct EimerFood.EimerFoodItem[]",
          "name": "",
          "type": "tuple[]"
        }
      ],
      "stateMutability": "view",
      "type": "function"
    },
    {
      "inputs": [],
      "name": "getEimerFoodsByOwner",
      "outputs": [
        {
          "components": [
            {
              "internalType": "address",
              "name": "owner",
              "type": "address"
            },
            {
              "internalType": "string",
              "name": "foodUrl",
              "type": "string"
            },
            {
              "internalType": "string",
              "name": "foodName",
              "type": "string"
            },
            {
              "internalType": "string",
              "name": "originCountry",
              "type": "string"
            }
          ],
          "internalType": "struct EimerFood.EimerFoodItem[]",
          "name": "",
          "type": "tuple[]"
        }
      ],
      "stateMutability": "view",
      "type": "function"
    }
  ],
  "bytecode": "0x608060405234801561001057600080fd5b50610ec4806100206000396000f3fe608060405234801561001057600080fd5b50600436106100415760003560e01c80633d22f33514610046578063b60c95b114610064578063d511c01b14610082575b600080fd5b61004e61009e565b60405161005b9190610b14565b60405180910390f35b61006c610309565b6040516100799190610b14565b60405180910390f35b61009c60048036038101906100979190610c7f565b61071f565b005b60606000805480602002602001604051908101604052809291908181526020016000905b8282101561030057838290600052602060002090600402016040518060800160405290816000820160009054906101000a900473ffffffffffffffffffffffffffffffffffffffff1673ffffffffffffffffffffffffffffffffffffffff1673ffffffffffffffffffffffffffffffffffffffff16815260200160018201805461014b90610d55565b80601f016020809104026020016040519081016040528092919081815260200182805461017790610d55565b80156101c45780601f10610199576101008083540402835291602001916101c4565b820191906000526020600020905b8154815290600101906020018083116101a757829003601f168201915b505050505081526020016002820180546101dd90610d55565b80601f016020809104026020016040519081016040528092919081815260200182805461020990610d55565b80156102565780601f1061022b57610100808354040283529160200191610256565b820191906000526020600020905b81548152906001019060200180831161023957829003601f168201915b5050505050815260200160038201805461026f90610d55565b80601f016020809104026020016040519081016040528092919081815260200182805461029b90610d55565b80156102e85780601f106102bd576101008083540402835291602001916102e8565b820191906000526020600020905b8154815290600101906020018083116102cb57829003601f168201915b505050505081525050815260200190600101906100c2565b50505050905090565b60606000805b6000805490508110156103b8573373ffffffffffffffffffffffffffffffffffffffff166000828154811061034757610346610d87565b5b906000526020600020906004020160000160009054906101000a900473ffffffffffffffffffffffffffffffffffffffff1673ffffffffffffffffffffffffffffffffffffffff1614156103a5576001826103a29190610def565b91505b80806103b090610e45565b91505061030f565b5060008167ffffffffffffffff8111156103d5576103d4610b54565b5b60405190808252806020026020018201604052801561040e57816020015b6103fb610826565b8152602001906001900390816103f35790505b5090506000805b600080549050811015610715573373ffffffffffffffffffffffffffffffffffffffff166000828154811061044d5761044c610d87565b5b906000526020600020906004020160000160009054906101000a900473ffffffffffffffffffffffffffffffffffffffff1673ffffffffffffffffffffffffffffffffffffffff16141561070257600081815481106104af576104ae610d87565b5b90600052602060002090600402016040518060800160405290816000820160009054906101000a900473ffffffffffffffffffffffffffffffffffffffff1673ffffffffffffffffffffffffffffffffffffffff1673ffffffffffffffffffffffffffffffffffffffff16815260200160018201805461052e90610d55565b80601f016020809104026020016040519081016040528092919081815260200182805461055a90610d55565b80156105a75780601f1061057c576101008083540402835291602001916105a7565b820191906000526020600020905b81548152906001019060200180831161058a57829003601f168201915b505050505081526020016002820180546105c090610d55565b80601f01602080910402602001604051908101604052809291908181526020018280546105ec90610d55565b80156106395780601f1061060e57610100808354040283529160200191610639565b820191906000526020600020905b81548152906001019060200180831161061c57829003601f168201915b5050505050815260200160038201805461065290610d55565b80601f016020809104026020016040519081016040528092919081815260200182805461067e90610d55565b80156106cb5780601f106106a0576101008083540402835291602001916106cb565b820191906000526020600020905b8154815290600101906020018083116106ae57829003601f168201915b5050505050815250508382815181106106e7576106e6610d87565b5b60200260200101819052506001826106ff9190610def565b91505b808061070d90610e45565b915050610415565b5081935050505090565b600060405180608001604052803373ffffffffffffffffffffffffffffffffffffffff16815260200185815260200184815260200183815250908060018154018082558091505060019003906000526020600020906004020160009091909190915060008201518160000160006101000a81548173ffffffffffffffffffffffffffffffffffffffff021916908373ffffffffffffffffffffffffffffffffffffffff16021790555060208201518160010190805190602001906107e4929190610864565b506040820151816002019080519060200190610801929190610864565b50606082015181600301908051906020019061081e929190610864565b505050505050565b6040518060800160405280600073ffffffffffffffffffffffffffffffffffffffff1681526020016060815260200160608152602001606081525090565b82805461087090610d55565b90600052602060002090601f01602090048101928261089257600085556108d9565b82601f106108ab57805160ff19168380011785556108d9565b828001600101855582156108d9579182015b828111156108d85782518255916020019190600101906108bd565b5b5090506108e691906108ea565b5090565b5b808211156109035760008160009055506001016108eb565b5090565b600081519050919050565b600082825260208201905092915050565b6000819050602082019050919050565b600073ffffffffffffffffffffffffffffffffffffffff82169050919050565b600061095e82610933565b9050919050565b61096e81610953565b82525050565b600081519050919050565b600082825260208201905092915050565b60005b838110156109ae578082015181840152602081019050610993565b838111156109bd576000848401525b50505050565b6000601f19601f8301169050919050565b60006109df82610974565b6109e9818561097f565b93506109f9818560208601610990565b610a02816109c3565b840191505092915050565b6000608083016000830151610a256000860182610965565b5060208301518482036020860152610a3d82826109d4565b91505060408301518482036040860152610a5782826109d4565b91505060608301518482036060860152610a7182826109d4565b9150508091505092915050565b6000610a8a8383610a0d565b905092915050565b6000602082019050919050565b6000610aaa82610907565b610ab48185610912565b935083602082028501610ac685610923565b8060005b85811015610b025784840389528151610ae38582610a7e565b9450610aee83610a92565b925060208a01995050600181019050610aca565b50829750879550505050505092915050565b60006020820190508181036000830152610b2e8184610a9f565b905092915050565b6000604051905090565b600080fd5b600080fd5b600080fd5b600080fd5b7f4e487b7100000000000000000000000000000000000000000000000000000000600052604160045260246000fd5b610b8c826109c3565b810181811067ffffffffffffffff82111715610bab57610baa610b54565b5b80604052505050565b6000610bbe610b36565b9050610bca8282610b83565b919050565b600067ffffffffffffffff821115610bea57610be9610b54565b5b610bf3826109c3565b9050602081019050919050565b82818337600083830152505050565b6000610c22610c1d84610bcf565b610bb4565b905082815260208101848484011115610c3e57610c3d610b4f565b5b610c49848285610c00565b509392505050565b600082601f830112610c6657610c65610b4a565b5b8135610c76848260208601610c0f565b91505092915050565b600080600060608486031215610c9857610c97610b40565b5b600084013567ffffffffffffffff811115610cb657610cb5610b45565b5b610cc286828701610c51565b935050602084013567ffffffffffffffff811115610ce357610ce2610b45565b5b610cef86828701610c51565b925050604084013567ffffffffffffffff811115610d1057610d0f610b45565b5b610d1c86828701610c51565b9150509250925092565b7f4e487b7100000000000000000000000000000000000000000000000000000000600052602260045260246000fd5b60006002820490506001821680610d6d57607f821691505b60208210811415610d8157610d80610d26565b5b50919050565b7f4e487b7100000000000000000000000000000000000000000000000000000000600052603260045260246000fd5b6000819050919050565b7f4e487b7100000000000000000000000000000000000000000000000000000000600052601160045260246000fd5b6000610dfa82610db6565b9150610e0583610db6565b9250827fffffffffffffffffffffffffffffffffffffffffffffffffffffffffffffffff03821115610e3a57610e39610dc0565b5b828201905092915050565b6000610e5082610db6565b91507fffffffffffffffffffffffffffffffffffffffffffffffffffffffffffffffff821415610e8357610e82610dc0565b5b60018201905091905056fea2646970667358221220436c92d503d103994181ce6fc743204eb8cd6c79e06681466db0b2915fe7907064736f6c63430008090033",
  "linkReferences": {},
  "deployedLinkReferences": {}
}